:060000000A128A110E280D
:10000800FE00030E83120313BC000A08BD000A1287
:100018008A111C290A128A1111288317BC30FD0085
:100028000F30FE006130FF00903084000A128A1100
:10003800F0270A128A1183160313BA01BB01BC0107
:10004800BD01BE01BF01C001C101C201C301C4019C
:1000580083010A128A11FB2A83160313B500A730FD
:10006800B00007292530360603193B283C284628C6
:10007800350884003608831380000130AD002D0850
:10008800B5070729B1010130A607FF30260784000C
:100098000A128A1187230A128A11B600AD00AE012E
:1000A8002E08003A0319592807292D08003A031980
:1000B8001729643A031964280D3A03196428072993
:1000C8003008840083130008B300840A0008B400D1
:1000D8000230AD002D08B007B41F732874287D289E
:1000E8000330AD002D08B104B309B409B30A0319EC
:1000F800B40AB601B60A3608AD002D07013E8400E1
:100108000A128A1187230A128A11AE000A128A116A
:1001180087230A128A11AF002F083402031D96287C
:100128002E083302031899289A289B28A5280130FD
:10013800AD002D08B60705303606031DA428A528EE
:100148007F28310803390319AA28AB28B4283508B1
:1001580084002D30831380000130AD002D08B507D1
:100168003608B200FE280A30A0000030A10032088C
:10017800AD002D07013E84000A128A1187230A1256
:100188008A1183120313C4000A128A1187230A12E0
:100198008A11C50083160313340883120313C7009A
:1001A80083160313330883120313C6000A128A1135
:1001B80062260A128A118312031345088316031351
:1001C800A30083120313440883160313A2000A1220
:1001D8008A11B0270A128A11831603132008303EA9
:1001E800B600350884003608831380000130AD005E
:1001F8002D08B507FF30AD002D08B207320A031DE0
:1002080006290729B7280130A607FF3026078400EA
:100218000A128A1187230A128A11B6003608031DAA
:100228001629172936283508840083138001080009
:100238000C1F1F292029B1290A128A15CC260A1257
:100248008A11710883120313BF007008BE003F08AB
:10025800AF003E08AE000030B000B100FF30B20081
:100268000030B3000030B400B500F430B6000130FF
:10027800B7000A128A11CC250A128A1183120313B5
:100288002F08C1002E08C0006430F0000030F100D3
:100298004108F3004008F2000A128A1168240A1281
:1002A8008A11700883120313BA00BB013A08831637
:1002B8000313BA00831203133B0883160313BB000E
:1002C8006430F0000030F100831203134108F3009A
:1002D8004008F2000A128A11CF240A128A11710802
:1002E80083120313C3007008C2000A30F000003004
:1002F800F1004208BA00BB013A08F2003B08F300DB
:100308000A128A1168240A128A11710883160313C3
:10031800BD007008BC000A30F0000030F100831204
:1003280003134308F3004208F2000A128A11CF248B
:100338000A128A11710883120313C3007008C200DD
:10034800430883160313BF0083120313420883165E
:100358000313BE00831203130C138C1EB429B52992
:10036800C0290A128A15BA260A128A11831603139B
:10037800C000831203138C123D088A003C0E8300D0
:10038800FE0E7E0E090083120313A901A31FCD29B7
:10039800CE29DB29A009A109A209A309A00A0319EA
:1003A800A10A0319A20A0319A30AA901A90AA71FE6
:1003B800DE29DF29EE29A409A509A609A709A40AA7
:1003C8000319A50A0319A60A0319A70A0130FD0093
:1003D8007D08A9060030AD000030AC000030AB004D
:1003E8000030AA0023082204210420040319FD294F
:1003F800FE294B2AA801A80A0E2A0130FD00031085
:10040800A00DA10DA20DA30DFD0B032A0130FD00C7
:100418007D08A807A31F112A122A012A0130FD000E
:100428000310AA0DAB0DAC0DAD0DFD0B142A23085E
:100438002702031D292A22082602031D292A21082A
:100448002502031D292A20082402031C2C2A2D2AF0
:100458003C2A2008A4022108031C210FA502220817
:10046800031C220FA6022308031C230FA7022A1429
:1004780001300310A30CA20CA10CA00CFF3E031D1D
:100488003D2A0130A802031D4A2A4B2A122A2908AC
:1004980003194F2A502A5B2AAA09AB09AC09AD09EE
:1004A800AA0A0319AB0A0319AC0A0319AD0A2D08E5
:1004B800A3002C08A2002B08A1002A08A00008000D
:1004C800831203131F141A3083120313C900F73061
:1004D800C800C80B6D2AC90B6D2A722A8312031330
:1004E80044084504031D792A7A2A7D2AC3309F05CA
:1004F800C42A44034504031D822A832A882A1F0824
:10050800C33904389F00C42A023044064504031D39
:100518008E2A8F2A942A1F08C33908389F00C42AB4
:10052800033044064504031D9A2A9B2AA02A1F0863
:10053800C3390C389F00C42A043044064504031DFF
:10054800A62AA72AAC2A1F08C33910389F00C42A34
:10055800053044064504031DB22AB32AB82A1F08E9
:10056800C33914389F00C42A063044064504031DC5
:10057800BE2ABF2AC42A1F08C33918389F00C42AB4
:10058800831603139F121F12831203134603470493
:10059800031DCF2AD02AD32A3F309F05F12A0430E1
:1005A80046064704031DD92ADA2ADF2A1F083F39DD
:1005B80040389F00F12A0830460647040319E52A07
:1005C800E62AED2A143046064704031DEC2AED2AD4
:1005D800F12A1F083F3980389F00831603130C1730
:1005E800831203130C13831603139F1308000A12B4
:1005F8008A15C6270A128A110A128A117C250A123C
:100608008A11831203139F180A2B0B2B192B1A30EC
:1006180083160313B800F730B700B70B112BB80BCC
:10062800112B162B831203139F146D30831603139B
:100638004006031D202B212B262B0A128A11EE2699
:100648000A128A110A128A15D6260A128A118312E8
:100658000313C801C80A01300A128A153F270A1273
:100668008A11613083120313C7008030C8000A1250
:100678008A1128250A128A1183120313C801C80A8D
:1006880002300A128A153F270A128A115730831638
:100698000313A6003B08A8003A08A7003D08AA00D3
:1006A8003C08A9003F08AC003E08AB00C1300A1264
:1006B8008A1130200A128A11C13083120313C7002D
:1006C8000030C8000A128A1128250A128A11063039
:1006D80083160313B9001330B800AD30B700B70B59
:1006E800732BB80B732BB90B732B052B0A128A11BA
:1006F8000E28FF1B872B83137F1883170008840A93
:100708000319FF0A080003308A000408840A8207D4
:100718000034013400340A34003464340034E834DA
:100728000334103427344E346F342034653478342D
:100738006934733474346534203465347334613403
:1007480020346F347034633469346F346E342C342D
:100758002034703472346534733469346F346E34D1
:100768006534203465346E3474346534723420341E
:100778007034613472346134203463346F346E34CD
:10078800743469346E3475346134723420340D3401
:10079800003449346E3467347234653473346534E4
:1007A80020347334753420346334613472346134E2
:1007B80063347434653472343A3420340034253464
:1007C80064342C3425346434253464342034563469
:1007D800003456346F346C34743461346A3465349C
:1007E800003408308312031344064504031DFD2B0F
:1007F800FE2B032C7030831603138F04642C0430F3
:1008080044064504031D092C0A2C112C83160313D6
:100818000F088F3960388F00642C02304406450475
:10082800031D172C182C1F2C831603130F088F3940
:1008380050388F00642C44034504031D242C252CB8
:100848002C2C831603130F088F3940388F00642C23
:10085800F4304406031D342C4503031D342C352C79
:100868003C2C831603130F088F3930388F00642C03
:10087800FA3044064504031D422C432C4A2C8316A7
:1008880003130F088F3920388F00642C7D304406FD
:100898004504031D502C512C582C831603130F08A4
:1008A8008F3910388F00642C1F3044064504031D0F
:1008B8005E2C5F2C642C8F30831603138F05642CF9
:1008C800831603130F140800F601F11F6C2C6D2C0E
:1008D800742CF009F109F00A0319F10AF601F60A75
:1008E800F31F772C782C812CF209F309F20A0319EB
:1008F800F30A0130F4007408F606F701F8017008ED
:1009080071040319882C892CC02CF501F50A972C41
:1009180001300310F00DF10DFF3E031D8D2C013049
:10092800F4007408F507F11F9A2C9B2C8C2C0130CD
:100938000310F70DF80DFF3E031D9C2C7108730280
:10094800031DA82C70087202031CAB2CAC2CB32C12
:100958007008F2027108031CF303F30277140130E4
:100968000310F10CF00CFF3E031DB42C0130F5020E
:10097800031DBF2CC02C9B2C76080319C42CC52C36
:10098800CA2CF709F809F70A0319F80A7808F100D8
:100998007708F0000800F601F31FD32CD42CDB2CC9
:1009A800F209F309F20A0319F30AF601F60AF11F2C
:1009B800DE2CDF2CE42CF009F109F00A0319F10A06
:1009C800700871040319E92CEA2C192DF501F50AB0
:1009D800F82C01300310F00DF10DFF3E031DEE2C35
:1009E8000130F4007408F507F11FFB2CFC2CED2CEA
:1009F80071087302031D022D70087202031C052D75
:100A0800062D0C2D7008F2027108031CF303F30283
:100A180001300310F10CF00CFF3E031D0D2D0130C9
:100A2800F502031D182D192DFC2C760803191D2D10
:100A38001E2D232DF209F309F20A0319F30A73088C
:100A4800F1007208F000080083160313A001A10149
:100A5800592D831603132008831203134707CA006E
:100A68004808C9000318C90A83160313A01F3F2D9D
:100A780083120313C903831203134908CB004B08DD
:100A8800FF004A0884000A128A117D230A128A117B
:100A98000A128A150B270A128A11013083160313CA
:100AA800A0070318A10A0030A10720088312031326
:100AB8004707CA004808C9000318C90A8316031360
:100AC800A01F692D83120313C90383120313490856
:100AD800CB004B08FF004A0884000A128A117D23C4
:100AE8000A128A11003A031D7A2D7B2D2D2D08003C
:100AF80000300A128A15C0260A128A11343083126D
:100B08000313C900F130C800C80B882DC90B882D04
:100B180030300A128A1523270A128A110D308312DF
:100B28000313C900FB30C800C80B982DC90B982DBA
:100B380030300A128A1523270A128A111D308312AF
:100B48000313C9009030C800C80BA82DC90BA82DE5
:100B5800000030300A128A1523270A128A113C3005
:100B68000A128A1523270A128A110C300A128A15CA
:100B780023270A128A1101300A128A1523270A121A
:100B88008A1106300A128A1523270A128A110800C8
:100B98008312031330083202A0003108031C310A03
:100BA8003302A100A201A11BA2032208A30030085E
:100BB8002E02F0003108031C310A2F02F100F20165
:100BC800F11BF2037208F30034083602F40035080A
:100BD800031C350A3702F500F601F51BF603760803
:100BE800F7000A128A11A8260A128A1173088312BA
:100BF8000313A7007208A6007108A5007008A400D6
:100C08000A128A11C7210A128A118312031334089F
:100C18002007B80035080318350A2107B900390834
:100C2800AF003808AE00080083120313CA01CB01D5
:100C3800452E0C1E202E212E1D2E4A084507C800C1
:100C48004608C7000318C70ACA1F2B2EC7038312FA
:100C580003134708C9004908FF00480884000A121E
:100C68008A117D230A128A110A128A15C6260A12C7
:100C78008A11013083120313CA070318CB0A003004
:100C8800CB074A084507C8004608C7000318C70A23
:100C9800CA1F4F2EC703831203134708C900490808
:100CA800FF00480884000A128A117D230A128A115B
:100CB800003A031D602E612E1D2E080083120313B7
:100CC800C901CA014408450403196B2E6C2EA32ED2
:100CD800CB01CB0A7A2E01300310C40DC50DFF3E9F
:100CE800031D702E0130C8004808CB07C51F7D2E94
:100CF8007E2E6F2E01300310C90DCA0DFF3E031D55
:100D08007F2E45084702031D8B2E44084602031C0C
:100D18008E2E8F2E962E4408C6024508031CC70344
:100D2800C702491401300310C50CC40CFF3E031D53
:100D3800972E0130CB02031DA22EA32E7E2E4A0829
:100D4800C5004908C40008000030FC000030FB0062
:100D58000030FA000030F900701CB32EB42ECB2EF0
:100D68007408F907750803110318013E0319BD2E0D
:100D7800FA07760803110318013E0319C42EFB076E
:100D8800770803110318013E0319CB2EFC07013025
:100D9800F8000310F40DF50DF60DF70DF80BCD2E38
:100DA80001300310F30CF20CF10CF00CFF3E031DA4
:100DB800D52E7308720471047004031DE42EE52E09
:100DC800B02E7C08F3007B08F2007A08F10079085D
:100DD800F0000800903083120313C5000130C600EC
:100DE8000A128A1118260A128A1183160313C001DF
:100DF80040080319002F012FFC2E222F0A128A15F2
:100E0800E3260A128A11322F0A128A158D270A122E
:100E18008A11322F0B3083120313C5008030C600AD
:100E28000A128A1118260A128A110D308312031326
:100E38001A06031D202F212F192F322F4008A10039
:100E4800A2012208003A03192A2F0E2F2108313A4D
:100E58000319022F033A0319082F0E2F08008316CF
:100E680003131811831603178711B0308312031365
:100E78004406043003194506031D432F442F4A2F07
:100E880067308316031399009A01662F6030440671
:100E9800093003194506031D522F532F582F33309D
:100EA800831603139900482F803044062530031910
:100EB8004506031D602F612F662F0C308316031320
:100EC8009900482F831298178316031318128C164B
:100ED800831203138C1618131816080083160313AD
:100EE8001811831603178711B030831203134406B1
:100EF800043003194506031D822F832F892F67307D
:100F08008316031399009A01A52F6030440609300F
:100F180003194506031D912F922F972F33308316FF
:100F280003139900872F803044062530031945069E
:100F3800031D9F2FA02FA52F0C3083160313990094
:100F4800872F8312981783160313181218139816ED
:100F5800831203130C1208008316031320082104BC
:100F68000319B72FB82FE72FA501A50AC62F0130FF
:100F78000310A00DA10DFF3E031DBC2F0130A400DE
:100F88002408A507A11FC92FCA2FBB2F2108230298
:100F9800031DD02F20082202031CD32FD42FDA2FB1
:100FA8002008A2022108031CA303A3020130031096
:100FB800A10CA00CFF3E031DDB2F0130A502031D71
:100FC800E62FE72FCA2F2308A1002208A000080057
:100FD8007E088A007F0882000A128A11EC270A120A
:100FE8008A118000840A04087D0603190034FF0A68
:060FF8000319FE0AF02FB0
:101D6E008B170B170800831203131A08F000700864
:101D7E00080083120313C40044088800080083126D
:101D8E000313C400440899000800831203131E08AD
:101D9E00F200F3017208F0007308F1000800003041
:101DAE000A128A1523270A128A1501300A128A1579
:101DBE0023270A128A150800C13083120313C500A7
:101DCE000030C6000A128A1118260A128A150A3025
:101DDE000A128A15C6260A128A15080001308316C1
:101DEE0003178800890101308316031385008601CD
:101DFE00FF30870088018901831203138501860154
:101E0E00870188018901080083120313C600091493
:101E1E0046080A128A15C0260A128A15831203135F
:101E2E008914193083120313C500C50B1C2F1F2FE5
:101E3E00831203138910080083120313C7000910BD
:101E4E0047080A128A15C0260A128A15831203132E
:101E5E0089140B3083120313C6006130C500C50B05
:101E6E00362FC60B362F3B2F831203138910080013
:101E7E0083120313C9004903031D462F472F512F09
:101E8E0048087F3ECA004A080A128A1523270A12FA
:101E9E008A15602F02304906031D562F572F602FCB
:101EAE004808BF3ECA004A080A128A1523270A129A
:101EBE008A1508000A3420344D3465346E34753476
:101ECE003A3420340A342034313429344C346534D5
:101EDE0065347234203476346F346C347434613437
:101EEE006A34653420340A3420343234293465346B
:101EFE006E34763469346134723420344134733440
:101F0E0063346934693420340D3400344130831223
:101F1E000313C5008030C6000A128A1118260A1251
:101F2E008A1583160313C001400803199F2FA02F93
:101F3E009B2F40080A128A15C6260A128A150A30E5
:101F4E000A128A15C6260A128A152B308316031317
:101F5E004006031DB32FB42FBB2F0130A000200865
:101F6E00831203138607C52F2D304006031DC02F85
:101F7E00C12FC52F013083120313860208000830CB
:101F8E0083120313C4000030C5000A128A11F52310
:101F9E000A128A150A128A15F5260A128A150A12CB
:101FAE008A15B7260A128A15003083120313C4004D
:101FBE00C5000830C6000030C7000A128A1164221C
:101FCE000A128A15803083120313C4002530C5000F
:101FDE000A128A1133270A128A15803083120313CC
:101FEE00C4002530C5000A128A1172270A128A15FA
:021FFE000800D9
:08400000FF3FFF3FFF3FFF3FC0
:04400E00D420FF3F7C
:00000001FF
